{
  "contractName": "Notas",
  "abi": [
    {
      "inputs": [],
      "stateMutability": "nonpayable",
      "type": "constructor"
    },
    {
      "anonymous": false,
      "inputs": [
        {
          "indexed": false,
          "internalType": "bytes32",
          "name": "",
          "type": "bytes32"
        },
        {
          "indexed": false,
          "internalType": "uint256",
          "name": "",
          "type": "uint256"
        }
      ],
      "name": "alumno_evaluado",
      "type": "event"
    },
    {
      "anonymous": false,
      "inputs": [
        {
          "indexed": false,
          "internalType": "string",
          "name": "",
          "type": "string"
        }
      ],
      "name": "evento_revision",
      "type": "event"
    },
    {
      "inputs": [],
      "name": "profesor",
      "outputs": [
        {
          "internalType": "address",
          "name": "",
          "type": "address"
        }
      ],
      "stateMutability": "view",
      "type": "function"
    },
    {
      "inputs": [
        {
          "internalType": "string",
          "name": "_idAlumno",
          "type": "string"
        },
        {
          "internalType": "uint256",
          "name": "_nota",
          "type": "uint256"
        }
      ],
      "name": "Evaluar",
      "outputs": [],
      "stateMutability": "nonpayable",
      "type": "function"
    },
    {
      "inputs": [
        {
          "internalType": "string",
          "name": "_idAlumno",
          "type": "string"
        }
      ],
      "name": "VerNotas",
      "outputs": [
        {
          "internalType": "uint256",
          "name": "",
          "type": "uint256"
        }
      ],
      "stateMutability": "nonpayable",
      "type": "function"
    },
    {
      "inputs": [
        {
          "internalType": "string",
          "name": "_idAlumno",
          "type": "string"
        }
      ],
      "name": "Revision",
      "outputs": [],
      "stateMutability": "nonpayable",
      "type": "function"
    },
    {
      "inputs": [],
      "name": "VerRevisiones",
      "outputs": [
        {
          "internalType": "string[]",
          "name": "",
          "type": "string[]"
        }
      ],
      "stateMutability": "view",
      "type": "function"
    }
  ],
  "bytecode": "0x608060405234801561001057600080fd5b50336000806101000a81548173ffffffffffffffffffffffffffffffffffffffff021916908373ffffffffffffffffffffffffffffffffffffffff160217905550610b56806100606000396000f3fe608060405234801561001057600080fd5b50600436106100575760003560e01c8063040d9f601461005c5780632cd22cd81461007857806333731af614610094578063df096576146100c4578063f22044e6146100e2575b600080fd5b61007660048036038101906100719190610695565b610100565b005b610092600480360381019061008d91906106f1565b610211565b005b6100ae60048036038101906100a991906106f1565b610287565b6040516100bb9190610749565b60405180910390f35b6100cc6102d5565b6040516100d991906107a5565b60405180910390f35b6100ea6102f9565b6040516100f7919061090a565b60405180910390f35b3360008054906101000a900473ffffffffffffffffffffffffffffffffffffffff1673ffffffffffffffffffffffffffffffffffffffff168173ffffffffffffffffffffffffffffffffffffffff161461018f576040517f08c379a0000000000000000000000000000000000000000000000000000000008152600401610186906109af565b60405180910390fd5b6000836040516020016101a29190610a0b565b6040516020818303038152906040528051906020012090508260016000838152602001908152602001600020819055507f1decb51588158e4fd9a593e42935e33c4641f4958a08256e305bf6dec1092d8f8184604051610203929190610a3b565b60405180910390a150505050565b60028190806001815401808255809150506001900390600052602060002001600090919091909150908051906020019061024c929190610462565b507fafd73f39162aa4c0421f362f3a3d26f44b23c73253256cfc1c68794b0973e0a08160405161027c9190610a9d565b60405180910390a150565b6000808260405160200161029b9190610a0b565b6040516020818303038152906040528051906020012090506000600160008381526020019081526020016000205490508092505050919050565b60008054906101000a900473ffffffffffffffffffffffffffffffffffffffff1681565b60603360008054906101000a900473ffffffffffffffffffffffffffffffffffffffff1673ffffffffffffffffffffffffffffffffffffffff168173ffffffffffffffffffffffffffffffffffffffff161461038a576040517f08c379a0000000000000000000000000000000000000000000000000000000008152600401610381906109af565b60405180910390fd5b6002805480602002602001604051908101604052809291908181526020016000905b828210156104585783829060005260206000200180546103cb90610aee565b80601f01602080910402602001604051908101604052809291908181526020018280546103f790610aee565b80156104445780601f1061041957610100808354040283529160200191610444565b820191906000526020600020905b81548152906001019060200180831161042757829003601f168201915b5050505050815260200190600101906103ac565b5050505091505090565b82805461046e90610aee565b90600052602060002090601f01602090048101928261049057600085556104d7565b82601f106104a957805160ff19168380011785556104d7565b828001600101855582156104d7579182015b828111156104d65782518255916020019190600101906104bb565b5b5090506104e491906104e8565b5090565b5b808211156105015760008160009055506001016104e9565b5090565b6000604051905090565b600080fd5b600080fd5b600080fd5b600080fd5b6000601f19601f8301169050919050565b7f4e487b7100000000000000000000000000000000000000000000000000000000600052604160045260246000fd5b61056c82610523565b810181811067ffffffffffffffff8211171561058b5761058a610534565b5b80604052505050565b600061059e610505565b90506105aa8282610563565b919050565b600067ffffffffffffffff8211156105ca576105c9610534565b5b6105d382610523565b9050602081019050919050565b82818337600083830152505050565b60006106026105fd846105af565b610594565b90508281526020810184848401111561061e5761061d61051e565b5b6106298482856105e0565b509392505050565b600082601f83011261064657610645610519565b5b81356106568482602086016105ef565b91505092915050565b6000819050919050565b6106728161065f565b811461067d57600080fd5b50565b60008135905061068f81610669565b92915050565b600080604083850312156106ac576106ab61050f565b5b600083013567ffffffffffffffff8111156106ca576106c9610514565b5b6106d685828601610631565b92505060206106e785828601610680565b9150509250929050565b6000602082840312156107075761070661050f565b5b600082013567ffffffffffffffff81111561072557610724610514565b5b61073184828501610631565b91505092915050565b6107438161065f565b82525050565b600060208201905061075e600083018461073a565b92915050565b600073ffffffffffffffffffffffffffffffffffffffff82169050919050565b600061078f82610764565b9050919050565b61079f81610784565b82525050565b60006020820190506107ba6000830184610796565b92915050565b600081519050919050565b600082825260208201905092915050565b6000819050602082019050919050565b600081519050919050565b600082825260208201905092915050565b60005b8381101561082657808201518184015260208101905061080b565b83811115610835576000848401525b50505050565b6000610846826107ec565b61085081856107f7565b9350610860818560208601610808565b61086981610523565b840191505092915050565b6000610880838361083b565b905092915050565b6000602082019050919050565b60006108a0826107c0565b6108aa81856107cb565b9350836020820285016108bc856107dc565b8060005b858110156108f857848403895281516108d98582610874565b94506108e483610888565b925060208a019950506001810190506108c0565b50829750879550505050505092915050565b600060208201905081810360008301526109248184610895565b905092915050565b600082825260208201905092915050565b7f4e6f207469656e6573207065726d69736f207061726120656a6563757461722060008201527f657374612066756e63696f6e2e00000000000000000000000000000000000000602082015250565b6000610999602d8361092c565b91506109a48261093d565b604082019050919050565b600060208201905081810360008301526109c88161098c565b9050919050565b600081905092915050565b60006109e5826107ec565b6109ef81856109cf565b93506109ff818560208601610808565b80840191505092915050565b6000610a1782846109da565b915081905092915050565b6000819050919050565b610a3581610a22565b82525050565b6000604082019050610a506000830185610a2c565b610a5d602083018461073a565b9392505050565b6000610a6f826107ec565b610a79818561092c565b9350610a89818560208601610808565b610a9281610523565b840191505092915050565b60006020820190508181036000830152610ab78184610a64565b905092915050565b7f4e487b7100000000000000000000000000000000000000000000000000000000600052602260045260246000fd5b60006002820490506001821680610b0657607f821691505b60208210811415610b1a57610b19610abf565b5b5091905056fea2646970667358221220b66d89b12bc9c6ad36cb8337c239f951bf143d7ddfe978c15d9bfbae21992d6464736f6c634300080a0033",
  "immutableReferences": {},
  "source": "// SPDX-License-Identifier: MIT\r\npragma solidity >=0.4.22 <0.9.0;\r\npragma experimental ABIEncoderV2;\r\n\r\n// -------------------------\r\n// ALUMNO |   ID   | NOTA\r\n// -------------------------\r\n// Marcos | 77755N |  5\r\n// Joan   | 12345X |  9\r\n// Marcia | 02468T |  2\r\n// Marta  | 13579U |  3\r\n// Alba   | 98765Z |  5\r\n\r\ncontract Notas {\r\n    // Direccion del profesor\r\n    address public profesor;\r\n\r\n    // Constructor \r\n    constructor() public {\r\n        profesor = msg.sender;\r\n    }\r\n\r\n    // Mapping para relacionar el hash de la identidad del alumno\r\n    mapping(bytes32 => uint) Notas;\r\n\r\n    // Array de los alumnos que pidan revisiones de examenes\r\n    string[] revisiones;\r\n\r\n    // Eventos\r\n    event alumno_evaluado(bytes32, uint);\r\n    event evento_revision(string);\r\n\r\n    // Funcion para evaluar a los alumnos\r\n    function Evaluar(string memory _idAlumno, uint _nota) public UnicamenteProfesor(msg.sender) {\r\n        // Hash de la identificacion del alumno\r\n        bytes32 hash_idAlumno = keccak256(abi.encodePacked(_idAlumno));\r\n\r\n        // Relacion entre el hash de la identificacion del alumno y su nota\r\n        Notas[hash_idAlumno] = _nota;\r\n\r\n        // Emision del evento\r\n        emit alumno_evaluado(hash_idAlumno, _nota);\r\n    }\r\n\r\n    modifier UnicamenteProfesor(address _direccion){\r\n        // Requiere de la direccion introducida por parametro sea igual al owner del contrato\r\n        require(_direccion == profesor, \"No tienes permiso para ejecutar esta funcion.\");\r\n        _;\r\n    }\r\n    \r\n    // Funcion para ver las notas de un alumno\r\n    function VerNotas(string memory _idAlumno) public returns(uint){\r\n        // Hash de la identificacion del alumno\r\n        bytes32 hash_idAlumno = keccak256(abi.encodePacked(_idAlumno));\r\n\r\n        // Nota asociada al hash del alumno\r\n        uint nota_alumno = Notas[hash_idAlumno];\r\n\r\n        // Visualizar la nota del alumno\r\n        return nota_alumno;\r\n    }\r\n\r\n    // Funcion para pedir una revision del examen\r\n    function Revision(string memory _idAlumno) public {\r\n        // Almacenamiento de la identidad del alumno en un array\r\n        revisiones.push(_idAlumno);\r\n\r\n        // Emision del evento\r\n        emit evento_revision(_idAlumno);\r\n    }\r\n\r\n    // Funcion para ver los alumnos que han solicitado revision de examen\r\n    function VerRevisiones() public view UnicamenteProfesor(msg.sender) returns(string[] memory) {\r\n        // Devolver las identidades de los alumnos que han solicitado revisiones\r\n        return revisiones;\r\n    }\r\n}",
  "sourcePath": "C:\\laragon\\www\\truffle-notas\\contracts\\Notas.sol",
  "compiler": {
    "name": "solc",
    "version": "0.8.10+commit.fc410830.Emscripten.clang"
  },
  "schemaVersion": "3.4.4",
  "updatedAt": "2021-12-19T20:39:54.976Z",
  "devdoc": {
    "kind": "dev",
    "methods": {},
    "version": 1
  },
  "userdoc": {
    "kind": "user",
    "methods": {},
    "version": 1
  }
}