{
  "contractName": "notas",
  "abi": [
    {
      "inputs": [],
      "stateMutability": "nonpayable",
      "type": "constructor"
    },
    {
      "anonymous": false,
      "inputs": [
        {
          "indexed": false,
          "internalType": "bytes32",
          "name": "",
          "type": "bytes32"
        },
        {
          "indexed": false,
          "internalType": "uint256",
          "name": "",
          "type": "uint256"
        }
      ],
      "name": "alumno_evaluado",
      "type": "event"
    },
    {
      "anonymous": false,
      "inputs": [
        {
          "indexed": false,
          "internalType": "string",
          "name": "",
          "type": "string"
        }
      ],
      "name": "evento_revision",
      "type": "event"
    },
    {
      "inputs": [],
      "name": "profesor",
      "outputs": [
        {
          "internalType": "address",
          "name": "",
          "type": "address"
        }
      ],
      "stateMutability": "view",
      "type": "function",
      "constant": true
    },
    {
      "inputs": [
        {
          "internalType": "string",
          "name": "_asignatura",
          "type": "string"
        },
        {
          "internalType": "string",
          "name": "_idAlumno",
          "type": "string"
        },
        {
          "internalType": "uint256",
          "name": "_nota",
          "type": "uint256"
        }
      ],
      "name": "Evaluar",
      "outputs": [],
      "stateMutability": "nonpayable",
      "type": "function"
    },
    {
      "inputs": [
        {
          "internalType": "string",
          "name": "_asignatura",
          "type": "string"
        },
        {
          "internalType": "string",
          "name": "_idAlumno",
          "type": "string"
        }
      ],
      "name": "VerNotas",
      "outputs": [
        {
          "internalType": "uint256",
          "name": "",
          "type": "uint256"
        }
      ],
      "stateMutability": "nonpayable",
      "type": "function"
    },
    {
      "inputs": [
        {
          "internalType": "string",
          "name": "_asignatura",
          "type": "string"
        },
        {
          "internalType": "string",
          "name": "_idAlumno",
          "type": "string"
        }
      ],
      "name": "Revision",
      "outputs": [],
      "stateMutability": "nonpayable",
      "type": "function"
    },
    {
      "inputs": [
        {
          "internalType": "string",
          "name": "_asignatura",
          "type": "string"
        }
      ],
      "name": "VerRevisiones",
      "outputs": [
        {
          "internalType": "string[]",
          "name": "",
          "type": "string[]"
        }
      ],
      "stateMutability": "view",
      "type": "function",
      "constant": true
    }
  ],
  "bytecode": "0x608060405234801561001057600080fd5b50336000806101000a81548173ffffffffffffffffffffffffffffffffffffffff021916908373ffffffffffffffffffffffffffffffffffffffff160217905550610c74806100606000396000f3fe608060405234801561001057600080fd5b50600436106100575760003560e01c8063303622241461005c578063593cbcf01461008c57806395bb498f146100a8578063df096576146100d8578063df3bba9f146100f6575b600080fd5b610076600480360381019061007191906106b2565b610112565b6040516100839190610845565b60405180910390f35b6100a660048036038101906100a1919061089d565b610299565b005b6100c260048036038101906100bd9190610928565b6103ad565b6040516100cf91906109af565b60405180910390f35b6100e06103fe565b6040516100ed9190610a0b565b60405180910390f35b610110600480360381019061010b9190610928565b610422565b005b60603360008054906101000a900473ffffffffffffffffffffffffffffffffffffffff1673ffffffffffffffffffffffffffffffffffffffff168173ffffffffffffffffffffffffffffffffffffffff16146101a3576040517f08c379a000000000000000000000000000000000000000000000000000000000815260040161019a90610aa9565b60405180910390fd5b6002836040516101b39190610b05565b9081526020016040518091039020805480602002602001604051908101604052809291908181526020016000905b8282101561028d57838290600052602060002001805461020090610b4b565b80601f016020809104026020016040519081016040528092919081815260200182805461022c90610b4b565b80156102795780601f1061024e57610100808354040283529160200191610279565b820191906000526020600020905b81548152906001019060200180831161025c57829003601f168201915b5050505050815260200190600101906101e1565b50505050915050919050565b3360008054906101000a900473ffffffffffffffffffffffffffffffffffffffff1673ffffffffffffffffffffffffffffffffffffffff168173ffffffffffffffffffffffffffffffffffffffff1614610328576040517f08c379a000000000000000000000000000000000000000000000000000000000815260040161031f90610aa9565b60405180910390fd5b6000848460405160200161033d929190610b7d565b6040516020818303038152906040528051906020012090508260016000838152602001908152602001600020819055507f1decb51588158e4fd9a593e42935e33c4641f4958a08256e305bf6dec1092d8f818460405161039e929190610bba565b60405180910390a15050505050565b60008083836040516020016103c3929190610b7d565b604051602081830303815290604052805190602001209050600060016000838152602001908152602001600020549050809250505092915050565b60008054906101000a900473ffffffffffffffffffffffffffffffffffffffff1681565b6002826040516104329190610b05565b9081526020016040518091039020819080600181540180825580915050600190039060005260206000200160009091909190915090805190602001906104799291906104b5565b507fafd73f39162aa4c0421f362f3a3d26f44b23c73253256cfc1c68794b0973e0a0816040516104a99190610c1c565b60405180910390a15050565b8280546104c190610b4b565b90600052602060002090601f0160209004810192826104e3576000855561052a565b82601f106104fc57805160ff191683800117855561052a565b8280016001018555821561052a579182015b8281111561052957825182559160200191906001019061050e565b5b509050610537919061053b565b5090565b5b8082111561055457600081600090555060010161053c565b5090565b6000604051905090565b600080fd5b600080fd5b600080fd5b600080fd5b6000601f19601f8301169050919050565b7f4e487b7100000000000000000000000000000000000000000000000000000000600052604160045260246000fd5b6105bf82610576565b810181811067ffffffffffffffff821117156105de576105dd610587565b5b80604052505050565b60006105f1610558565b90506105fd82826105b6565b919050565b600067ffffffffffffffff82111561061d5761061c610587565b5b61062682610576565b9050602081019050919050565b82818337600083830152505050565b600061065561065084610602565b6105e7565b90508281526020810184848401111561067157610670610571565b5b61067c848285610633565b509392505050565b600082601f8301126106995761069861056c565b5b81356106a9848260208601610642565b91505092915050565b6000602082840312156106c8576106c7610562565b5b600082013567ffffffffffffffff8111156106e6576106e5610567565b5b6106f284828501610684565b91505092915050565b600081519050919050565b600082825260208201905092915050565b6000819050602082019050919050565b600081519050919050565b600082825260208201905092915050565b60005b83811015610761578082015181840152602081019050610746565b83811115610770576000848401525b50505050565b600061078182610727565b61078b8185610732565b935061079b818560208601610743565b6107a481610576565b840191505092915050565b60006107bb8383610776565b905092915050565b6000602082019050919050565b60006107db826106fb565b6107e58185610706565b9350836020820285016107f785610717565b8060005b85811015610833578484038952815161081485826107af565b945061081f836107c3565b925060208a019950506001810190506107fb565b50829750879550505050505092915050565b6000602082019050818103600083015261085f81846107d0565b905092915050565b6000819050919050565b61087a81610867565b811461088557600080fd5b50565b60008135905061089781610871565b92915050565b6000806000606084860312156108b6576108b5610562565b5b600084013567ffffffffffffffff8111156108d4576108d3610567565b5b6108e086828701610684565b935050602084013567ffffffffffffffff81111561090157610900610567565b5b61090d86828701610684565b925050604061091e86828701610888565b9150509250925092565b6000806040838503121561093f5761093e610562565b5b600083013567ffffffffffffffff81111561095d5761095c610567565b5b61096985828601610684565b925050602083013567ffffffffffffffff81111561098a57610989610567565b5b61099685828601610684565b9150509250929050565b6109a981610867565b82525050565b60006020820190506109c460008301846109a0565b92915050565b600073ffffffffffffffffffffffffffffffffffffffff82169050919050565b60006109f5826109ca565b9050919050565b610a05816109ea565b82525050565b6000602082019050610a2060008301846109fc565b92915050565b600082825260208201905092915050565b7f4e6f207469656e6573207065726d69736f207061726120656a6563757461722060008201527f657374612066756e63696f6e2e00000000000000000000000000000000000000602082015250565b6000610a93602d83610a26565b9150610a9e82610a37565b604082019050919050565b60006020820190508181036000830152610ac281610a86565b9050919050565b600081905092915050565b6000610adf82610727565b610ae98185610ac9565b9350610af9818560208601610743565b80840191505092915050565b6000610b118284610ad4565b915081905092915050565b7f4e487b7100000000000000000000000000000000000000000000000000000000600052602260045260246000fd5b60006002820490506001821680610b6357607f821691505b60208210811415610b7757610b76610b1c565b5b50919050565b6000610b898285610ad4565b9150610b958284610ad4565b91508190509392505050565b6000819050919050565b610bb481610ba1565b82525050565b6000604082019050610bcf6000830185610bab565b610bdc60208301846109a0565b9392505050565b6000610bee82610727565b610bf88185610a26565b9350610c08818560208601610743565b610c1181610576565b840191505092915050565b60006020820190508181036000830152610c368184610be3565b90509291505056fea2646970667358221220e83641eaaa7fd79289b3f400b0532d6813bbc889bd9d0f7038da05c3e60ebdd064736f6c634300080a0033",
  "immutableReferences": {},
  "source": "// SPDX-License-Identifier: MIT\r\npragma solidity >=0.4.22 <0.9.0;\r\npragma experimental ABIEncoderV2;\r\n\r\n// -------------------------\r\n// ALUMNO |   ID   | NOTA\r\n// -------------------------\r\n// Marcos | 77755N |  5\r\n// Joan   | 12345X |  9\r\n// Marcia | 02468T |  2\r\n// Marta  | 13579U |  3\r\n// Alba   | 98765Z |  5\r\n\r\ncontract notas {\r\n    // Direccion del profesor\r\n    address public profesor;\r\n\r\n    // Constructor \r\n    constructor() public {\r\n        profesor = msg.sender;\r\n    }\r\n\r\n    // Mapping para relacionar el hash de la identidad del alumno\r\n    mapping(bytes32 => uint) Notas;\r\n\r\n    // Mapping de los alumnos que pidan revisiones de un examen para una asignatura\r\n    mapping(string => string[]) revisiones;\r\n\r\n    // Eventos\r\n    event alumno_evaluado(bytes32, uint);\r\n    event evento_revision(string);\r\n\r\n    // Funcion para evaluar a los alumnos\r\n    function Evaluar(string memory _asignatura, string memory _idAlumno, uint _nota) public UnicamenteProfesor(msg.sender) {\r\n        // Hash de la identificacion del alumno\r\n        bytes32 hash_idAlumno = keccak256(abi.encodePacked(_asignatura, _idAlumno));\r\n\r\n        // Relacion entre el hash de la identificacion del alumno y su nota\r\n        Notas[hash_idAlumno] = _nota;\r\n\r\n        // Emision del evento\r\n        emit alumno_evaluado(hash_idAlumno, _nota);\r\n    }\r\n\r\n    modifier UnicamenteProfesor(address _direccion){\r\n        // Requiere de la direccion introducida por parametro sea igual al owner del contrato\r\n        require(_direccion == profesor, \"No tienes permiso para ejecutar esta funcion.\");\r\n        _;\r\n    }\r\n    \r\n    // Funcion para ver las notas de un alumno\r\n    function VerNotas(string memory _asignatura, string memory _idAlumno) public returns(uint){\r\n        // Hash de la identificacion del alumno\r\n        bytes32 hash_idAlumno = keccak256(abi.encodePacked(_asignatura, _idAlumno));\r\n\r\n        // Nota asociada al hash del alumno\r\n        uint nota_alumno = Notas[hash_idAlumno];\r\n\r\n        // Visualizar la nota del alumno\r\n        return nota_alumno;\r\n    }\r\n\r\n    // Funcion para pedir una revision del examen\r\n    function Revision(string memory _asignatura, string memory _idAlumno) public {\r\n        // Almacenamiento de la identidad del alumno en un array\r\n        revisiones[_asignatura].push(_idAlumno);\r\n\r\n        // Emision del evento\r\n        emit evento_revision(_idAlumno);\r\n    }\r\n\r\n    // Funcion para ver los alumnos que han solicitado revision de examen\r\n    function VerRevisiones(string memory _asignatura) public view UnicamenteProfesor(msg.sender) returns(string[] memory) {\r\n        // Devolver las identidades de los alumnos que han solicitado revisiones\r\n        return revisiones[_asignatura];\r\n    }\r\n}",
  "sourcePath": "C:\\laragon\\www\\truffle-notas\\contracts\\notas.sol",
  "compiler": {
    "name": "solc",
    "version": "0.8.10+commit.fc410830.Emscripten.clang"
  },
  "schemaVersion": "3.4.4",
  "updatedAt": "2021-12-19T21:47:53.013Z",
  "networkType": "ethereum",
  "devdoc": {
    "kind": "dev",
    "methods": {},
    "version": 1
  },
  "userdoc": {
    "kind": "user",
    "methods": {},
    "version": 1
  }
}